:100000009EC00000BBC00000B9C00000B7C0000027
:10001000B5C00000B3C00000B1C00000AFC0000018
:10002000ADC00000ABC00000A9C00000C1C000000E
:10003000A5C00000A3C00000A1C000009FC0000038
:100040009DC000009BC0000099C0000097C0000048
:1000500095C0000093C0000091C000008FC0000058
:100060008DC000008BC0000089C0000087C0000068
:1000700085C0000083C0000081C000007FC0000078
:100080007DC000007BC0000079C0000077C0000088
:1000900075C0000073C0000071C000006FC0000098
:1000A0006DC000006BC0000069C0000067C00000A8
:1000B00065C0000063C0000061C000005FC00000B8
:1000C0005DC000005BC0000059C0000057C00000C8
:1000D00055C0000053C0000051C000004FC00000D8
:1000E0004DC00000415432353630000D0A41744D88
:1000F000656761323536302076312E3020554450D8
:100100002053656E642052656365697665204950A9
:100110002057495A4E45545F3535303020455448B4
:1001200045524E45540D0A0032333A30343A32319A
:10013000004F63742020352032303230000011240B
:100140001FBECFEFD1E2DEBFCDBF00E00CBF15E098
:10015000A0E0B2E0E2E2F1E100E00BBF02C00790F4
:100160000D92A03AB107D9F725E0A0EAB5E001C0A9
:100170001D92AA3AB207E1F71BD4D1C741CFCF9362
:10018000DF931F921F92CDB7DEB78091A0059091AB
:10019000A105009711F09C0102C02AEA35E0CE01CA
:1001A0000196821B930B0F900F90DF91CF910895D2
:1001B0001F920F920FB60F9211240BB60F922F932E
:1001C0003F934F935F936F937F938F939F93AF93DF
:1001D000BF93EF93FF9385E292E0C4D42F9AFF91EF
:1001E000EF91BF91AF919F918F917F916F915F91AF
:1001F0004F913F912F910F900BBE0F900FBE0F901C
:100200001F9018958F929F92AF92BF92CF92DF92DC
:10021000EF92FF920F931F93CF93DF9300D0CDB750
:10022000DEB76A01F22E89837A836B8368D48E01EC
:100230000F5F1F4F4E0184E0880E911C0F2EF6E7D2
:10024000AF2EF3E0BF2EF02DF801E1908F018E2D3F
:100250004AD41F92EF92BF92AF9271D40F900F9039
:100260000F900F900815190579F7FF2081F086018E
:10027000FA94EF2CF12CFFEFEF1AFF0AEC0CFD1CA7
:10028000F80181918F012FD40E151F05C9F739D4BC
:100290000F900F900F90DF91CF911F910F91FF90D2
:1002A000EF90DF90CF90BF90AF909F908F90089588
:1002B0001F93CF93DF93C62FD72F182F20D4812FD2
:1002C00012D48D2F10D48C2F0ED412D4C82F19D441
:1002D0008C2FDF91CF911F910895EF92FF920F9392
:1002E0001F93CF93DF93CDB7DEB785E492E03AD486
:1002F0007E0180E1E80EF11C00E010E0702F66271F
:100300006C5F704F80E090E021E0A7017BDF0F5F22
:100310001F4F9FEFE91AF90A0430110579F78FE5AD
:1003200092E020D4CE010A967C0100E010E0702F0C
:1003300066276C5F764F80E090E021E0A70162DFE6
:100340000F5F1F4F9FEFE91AF90A0630110579F781
:1003500089E792E007D47E0188E1E80EF11C00E015
:1003600010E0702F66276C5F7E4F80E090E021E008
:10037000A70148DF0F5F1F4F9FEFE91AF90A04300A
:10038000110579F784E992E0EDD37E0184E1E80E6E
:10039000F11C00E010E0702F66276C5F7A4F80E060
:1003A00090E021E0A7012EDF0F5F1F4F9FEFE91ABA
:1003B000F90A0430110579F7DF91CF911F910F9160
:1003C000FF90EF900895CF93DF938EEA92E0CAD327
:1003D000C0E0D0E07C2F6627715F80E090E068DFAE
:1003E0002196C430D105B1F78CEC92E0BBD3C0E0CC
:1003F000D0E07C2F6627775F80E090E059DF219680
:10040000C630D105B1F78AEE92E0ACD3C0E0D0E0BF
:100410007C2F6627739580E090E04ADF2196C430F8
:10042000D105B1F789E093E09DD3C0E0D0E07C2F07
:1004300066277B5F80E090E03BDF2196C430D105EA
:10044000B1F7DF91CF910895DF92EF92FF920F9372
:100450001F93CF93DF9300D0CDB7DEB7F82ED62E03
:10046000E72E87E293E07ED30F2D10E0EF92DF922C
:100470001F92FF928EE493E09F938F9360D36894D2
:10048000FF24F1F8F982000F111F000F111F0F5FF9
:100490001F4F000F111F000F111F000F111FC80168
:1004A000925E9F938F931F92FF9284E693E09F93B7
:1004B0008F9345D3B8016C5F714E072E000C880BEB
:1004C000990B21E0AE014F5F5F4F9CDEC801915E4A
:1004D0009F938F9389811F928F938CE793E09F93D3
:1004E0008F932DD3B8016C5F704E072E000C880BD4
:1004F000990B21E0AE014F5F5F4F84DEF9821F93BD
:100500000F931F92FF9284E993E09F938F9317D3E9
:10051000B8016C5F7F4F072E000C880B990B21E010
:10052000AE014F5F5F4F6EDEEA82DB82C8019C5FE7
:100530009F938F931F92EF9283EA93E09F938F9301
:10054000FED2B8016C5F7B4F072E000C880B990B15
:1005500021E0AE014E5F5F4F55DEC8018F5F9B4FBC
:100560009F938F938B811F928F9387EB93E09F9341
:100570008F93E5D20FB6F894DEBF0FBECDBFB801A2
:100580006C5F7A4F072E000C880B990B21E0AE01AF
:100590004D5F5F4F37DE81E08983980133953F934C
:1005A0002F931F928F938BEC93E09F938F93C7D2DF
:1005B000B8016C5F7E4F072E000C880B990B21E071
:1005C000AE014F5F5F4F1EDEB8017D5F072E000C4E
:1005D000880B990B6DDE93E09F9398E09F931F9299
:1005E0008F938CED93E09F938F93A9D20FB6F894DD
:1005F000DEBF0FBECDBF0F900F900F90DF91CF9158
:100600001F910F91FF90EF90DF9008950F931F932C
:10061000CF93DF93C82F8DEE93E0A4D2D0E0CC0F20
:10062000DD1FCC0FDD1F2196CC0FDD1FCC0FDD1F92
:10063000CC0FDD1FBE017D5F072E000C880B990BD0
:1006400037DE93E09F9398E09F931F928F938CEDFA
:1006500093E09F938F9373D28E011C5FB801012E9C
:10066000000C880B990B24DE1F930F931F928F931E
:100670008EE094E09F938F9362D2DB5FBE010D2EDC
:10068000000C880B990B14DEDF93CF931F928F938E
:1006900082E294E09F938F9352D28DB79EB7429699
:1006A0000FB6F8949EBF0FBE8DBFDF91CF911F9103
:1006B0000F9108952F923F924F925F926F927F9287
:1006C0008F929F92AF92BF92CF92DF92EF92FF9262
:1006D0000F931F93CF93DF9300D0CDB7DEB7182FC2
:1006E00086E394E03FD2C12ED12C1F921F9383E664
:1006F00094E09F938F9323D2CC0CDD1CCC0CDD1C9B
:1007000056012FEFA21AB20AAA0CBB1CAA0CBB1CE2
:10071000AA0CBB1C150138ED331AB101032C000CD7
:10072000880B990BC5DD882EC501975D9B838A8355
:10073000BC01990F880B990BBBDD912C982C882458
:10074000880E911C3F922F929F928F9280E794E0A7
:100750009F938F93F4D185011A5DB801012E000C8F
:10076000880B990BA5DDE82EB501795D072E000CED
:10077000880B990B9DDDF12CFE2CEE24E80EF11C6C
:100780001F930F93FF92EF9286E894E09F938F93CD
:10079000D6D12401612C712C762C652C542C442448
:1007A000C6010396880F991F880F991F880F991FFC
:1007B000092E000CAA0BBB0B480E591E6A1E7B1E8D
:1007C0007F926F925F924F928DE994E09F938F9307
:1007D000B6D10FB6F894DEBF0FBECDBFE114F10461
:1007E00071F100E010E00F2EF8E7CF2EF3E0DF2EDE
:1007F000F02D0830110520F4C301B20159DD16C0F7
:100800000830110539F484EB94E09F938F9397D1CE
:100810000F900F90C301B2014BDD1F928F93DF92B7
:10082000CF928DD10F900F900F900F903FEF531AF2
:10083000630A730A0F5F1F4FE016F106D1F68CEDC5
:1008400094E09F938F937BD1E80CF91CF982B5015A
:100850006C5F774D072E000C880B990B21E0AE01E1
:100860004F5F5F4FCFDC3F922F9289811F928F9312
:1008700082E095E09F938F9362D1E982B5016C5F2E
:10088000764D072E000C880B990B21E0AE014F5FCF
:100890005F4FB8DC8B818F939A819F9389811F92E0
:1008A0008F9389E195E09F938F9349D180E4898369
:1008B00080E395E09F938F9342D1B5016C5F7E4FAB
:1008C000072E000C880B990B21E0AE014F5F5F4FA4
:1008D00099DC0FB6F894DEBF0FBECDBF0F900F901E
:1008E0000F90DF91CF911F910F91FF90EF90DF90CC
:1008F000CF90BF90AF909F908F907F906F905F90C0
:100900004F903F902F9008951F93CF93DF9324E053
:10091000829FC0011124EC012196CC0FDD1FCC0F6A
:10092000DD1FCC0FDD1FBE01785D072E000C880B8C
:10093000990BBEDC182FBE01775D072E000C880BCB
:10094000990BB6DC212F30E0322F2227A901480F66
:10095000511DCA01DF91CF911F9108951F93CF932D
:10096000DF9324E0829FC0011124EC012196CC0F7B
:10097000DD1FCC0FDD1FCC0FDD1FBE017A5D072E02
:10098000000C880B990B94DC182FBE01795D072EA3
:10099000000C880B990B8CDC212F30E0322F2227A2
:1009A000A901480F511DCA01DF91CF911F910895F0
:1009B000CF93DF93CDB7DEB767970FB6F894DEBF5E
:1009C0000FBECDBF80E092E09093A7058093A6056F
:1009D00089E190E098D0D3DB9F938F9382E495E0F8
:1009E0009F938F93ACD08BEE90E09F938F938DE588
:1009F00095E09F938F93A3D081E391E09F938F9392
:100A000088E291E09F938F9383E695E09F938F9385
:100A100096D01F9284EF8F9384E28F931F9284EE7F
:100A200090E09F938F938BE795E09F938F9387D070
:100A300055D0789487E1EEE0F2E0DE011196019066
:100A40000D928A95E1F78DB79EB747970FB6F89448
:100A50009EBF0FBE8DBFADB7BEB7119687E1FE0139
:100A6000319601900D928A95E1F737DC8DB79EB7EC
:100A70008D960FB6F894DEBF0FBECDBF47970FB669
:100A8000F8949EBF0FBE8DBFADB7BEB7119687E17C
:100A9000FE01319601900D928A95E1F794DC60EAAF
:100AA0007FE080E0D1DC80E0B1DD0FB6F894DEBFFE
:100AB0000FBECDBF0AE915E080E050DF892BE1F3DE
:100AC00080E0F8DD80E020DF9F938F931F930F93EA
:100AD00036D00F900F900F900F90EECF87E084B933
:100AE00081E58CBD08958EBD0DB407FEFDCF089540
:100AF0008FEF8EBD0DB407FEFDCF8EB508952898FB
:100B00000895289A08959093C5008093C40088E1C1
:100B10008093C1000895E0ECF0E0908195FFFDCF57
:100B20008093C6000895CF93C82F8A3011F48DE0CA
:100B3000F2DF8C2FF0DF80E090E0CF910895CF932B
:100B4000DF93CDB7DEB7AE014A5F5F4FFA01619127
:100B50007191AF018091A6059091A70533D0DF91E7
:100B6000CF9108950F931F93CF93DF93E091A60544
:100B7000F091A705238121FF1BC08C01D0E0C0E0CC
:100B8000F80181918F016091A6057091A705DB01A5
:100B90001896ED91FC911997882331F01995892BBE
:100BA00079F3DFEFCFEFECCF8AE01995892B19F0BD
:100BB0008FEF9FEF02C08D2F9C2FDF91CF911F9160
:100BC0000F9108952F923F924F925F926F927F9272
:100BD0008F929F92AF92BF92CF92DF92EF92FF924D
:100BE0000F931F93CF93DF93CDB7DEB72B970FB63D
:100BF000F894DEBF0FBECDBF6C017B018A01FC0102
:100C000017821682838181FFBFC1CE0101963C010C
:100C1000F6019381F70193FD859193FF81917F0107
:100C2000882309F4ADC1853239F493FD859193FF92
:100C300081917F01853221F4B60190E0D6D1E8CFD1
:100C4000912C212C312CFFE1F315D8F08B3279F067
:100C500038F4803279F08332A1F4232D20611DC055
:100C60008D3261F0803369F4232D216016C0832D0D
:100C70008260382EE32DE4603E2E2AC0F32DF8600A
:100C80001DC037FC2DC020ED280F2A3040F08E32D9
:100C9000B9F436FC75C1232D2064322E19C036FEFE
:100CA00006C08AE0989E200D1124922E11C0EAE021
:100CB0002E9E200D1124222EF32DF0623F2E08C00F
:100CC0008C3621F4832D8068382E02C0883641F49A
:100CD000F70193FD859193FF81917F018111B3CF3E
:100CE000982F9F7D9554933028F40C5F1F4F9FE3FE
:100CF00099830DC0833631F0833771F0833509F065
:100D000055C020C0F801808189830E5F1F4F882461
:100D10008394912C530112C02801F2E04F0E511C14
:100D2000F801A080B18036FE03C0692D70E002C0DA
:100D30006FEF7FEFC5014ED14C018201F32DFF779C
:100D40003F2E15C0280122E0420E511CF801A08060
:100D5000B18036FE03C0692D70E002C06FEF7FEFF7
:100D6000C5012DD14C01F32DF0683F2E820133FCDB
:100D700019C0822D90E088169906A0F4B60180E291
:100D800090E033D12A94F5CFF50137FC859137FEF9
:100D900081915F01B60190E028D121102A9421E0D1
:100DA000821A91088114910479F7E1C0843611F018
:100DB000893639F5F80137FE07C06081718182817B
:100DC00093810C5F1F4F08C060817181072E000C5A
:100DD000880B990B0E5F1F4FF32DFF763F2E97FF69
:100DE00009C090958095709561957F4F8F4F9F4F6B
:100DF000F0683F2E2AE030E0A30133D1882E861818
:100E000044C0853731F4232D2F7EB22E2AE030E006
:100E100025C0932D997FB92E8F36C1F018F48835EF
:100E200079F0AEC0803719F0883721F0A9C0E92FDA
:100E3000E061BE2EB4FE0DC0FB2DF460BF2E09C0D4
:100E400034FE0AC0292F2660B22E06C028E030E00A
:100E500005C020E130E002C020E132E0F801B7FE39
:100E600007C060817181828193810C5F1F4F06C032
:100E70006081718180E090E00E5F1F4FA301F1D08F
:100E8000882E8618FB2DFF773F2E36FE0DC0232DB2
:100E90002E7FA22E891458F434FE0BC032FC09C0F8
:100EA000832D8E7EA82E05C0B82CA32C03C0B82C91
:100EB00001C0B92CA4FE0FC0FE01E80DF11D808118
:100EC000803321F49A2D997EA92E09C0A2FE06C076
:100ED000B394B39404C08A2D867809F0B394A3FC2C
:100EE00010C0A0FE06C0B21480F4280C922C9B18EF
:100EF0000DC0B21458F4B60180E290E076D0B394FD
:100F0000F8CFB21418F42B1802C0982C212CA4FE90
:100F10000FC0B60180E390E068D0A2FE16C0A1FC2D
:100F200003C088E790E002C088E590E0B6010CC0FD
:100F30008A2D867851F0A1FE02C08BE201C080E2CA
:100F4000A7FC8DE2B60190E050D0891430F4B601D0
:100F500080E390E04AD09A94F8CF8A94F301E80DA8
:100F6000F11D8081B60190E040D08110F6CF2220A3
:100F700009F44ECEB60180E290E037D02A94F7CF44
:100F8000F6018681978102C08FEF9FEF2B960FB6F7
:100F9000F894DEBF0FBECDBFDF91CF911F910F91AF
:100FA000FF90EF90DF90CF90BF90AF909F908F9089
:100FB0007F906F905F904F903F902F900895FC012D
:100FC0000590615070400110D8F7809590958E0F74
:100FD0009F1F0895FC016150704001900110D8F7E7
:100FE000809590958E0F9F1F08950F931F93CF9319
:100FF000DF93FB01238121FD03C08FEF9FEF2CC006
:1010000022FF16C04681578124813581421753073C
:1010100044F4A081B1819D012F5F3F4F3183208334
:101020008C93268137812F5F3F4F3783268314C0EF
:101030008B01EC01FB010084F185E02D1995892BD2
:10104000E1F6D80116968D919C9117970196179607
:101050009C938E931697CE01DF91CF911F910F91A4
:101060000895FA01AA27283051F1203181F1E8943E
:101070006F936E7F6E5F7F4F8F4F9F4FAF4FB1E08B
:101080003ED0B4E03CD0670F781F891F9A1FA11D86
:10109000680F791F8A1F911DA11D6A0F711D811D87
:1010A000911DA11D20D009F468943F912AE0269F4C
:1010B00011243019305D3193DEF6CF010895462FAB
:1010C0004770405D4193B3E00FD0C9F7F6CF462F8C
:1010D0004F70405D4A3318F0495D31FD40524193F5
:1010E00002D0A9F7EACFB4E0A695979587957795B2
:1010F0006795BA95C9F700976105710508959B0139
:10110000AC010A2E06945795479537952795BA95C1
:10111000C9F7620F731F841F951FA01D0895F894CF
:02112000FFCFFF
:10112200000000020000000093050000000000081B
:10113200DCABCDEFC0A80037FFFFFF00C0A8000165
:101142000808080801494E54455252555054494F17
:101152004E2041435449564520464F522050434960
:101162004E54320D000D0A2D2D2D2D2D2D204950BE
:1011720020414444523A202D2D2D2D2D2D0D000DB0
:101182000A2D2D2D2D2D2D204D4143204144445219
:10119200202D2D2D2D2D2D0D000D0A2D2D2D2D2D1A
:1011A2002D20475720495020414444202D2D2D2DDC
:1011B2002D2D0D000D0A2D2D2D2D2D2D204E45549A
:1011C200204D41534B202D2D2D2D2D2D0D000D0A7F
:1011D2002D2D2D2D2D2D20474554204950204144A1
:1011E20044523A202D2D2D2D2D2D0D000D0A2D2D81
:1011F2002D2D2D2D20474554204D4143204144445F
:1012020052202D2D2D2D2D2D0D000D0A2D2D2D2D84
:101212002D2D204745542047572049502041444412
:10122200202D2D2D2D2D2D0D000D0A2D2D2D2D2D89
:101232002D20474554204E4554204D41534B202DDF
:101242002D2D2D2D2D0D000D0A2D2D2D2D2D2D2D5C
:1012520020494E495449414C495A494E4720554428
:1012620050202D2D2D2D2D2D2D2D2D2D0D00536F7B
:10127200636B65742023256420506F7274202325CC
:10128200750A0D00536E5F52584255465F53495AD4
:10129200453A20257840307825782000536E5F54F7
:1012A200584255465F53495A453A2025784030788E
:1012B20025782000536E4D523A202578403078250B
:1012C200782000536E504F5254303A2030782578AF
:1012D20040307825782000536E504F5254313A20D6
:1012E2003078257840307825782000536E43523A82
:1012F200203078257840307825782000536E5F536F
:10130200523A2025784030782578200A000D0A2D9F
:101312002D2D2D2D2D2D2055445020535441545503
:1013220053202D2D2D2D2D2D2D2D2D2D0D00536EB8
:101332005F504F5254303A2025784030782578203B
:101342000A00536E5F504F5254313A202578403094
:10135200782578200A000D0A2D2D2D2D2D2D2D2DCD
:101362002D2D204645544348205245474953544564
:10137200522044415441202D2D2D2D2D2D2D2D2D2A
:101382002D0D00536F636B6574202325750A0D00C4
:10139200536E5F52585F52443A203078257840307D
:1013A2007825780A0D00536E5F52585F5253523AB5
:1013B200203078257840307825780A0D004865611C
:1013C200646572204164643A2030782530386C7844
:1013D200200A0D000A0D2D2D2D2D2D2D2D2D2D2DFB
:1013E20020535441525420554450204D5347202DF0
:1013F2002D2D2D2D2D2D2D2D2D0A0D000A0D2D2DCE
:101402002D2D2D2D2D2D2D2D20454E442055445072
:10141200204D5347202D2D2D2D2D2D2D2D2D2D0AD7
:101422000D00536E5F52585F5244303A2030782597
:101432007840307825780A0D00536E5F52585F521B
:1014420044313A203078257840307825780A0D00EA
:101452000D0A536E5F435220746F20524543560A61
:101462000D003E3E20467265652052414D20697353
:101472003A2025642062797465730D0A003E3E208D
:101482002573003E3E20436F6D70696C6564206178
:10149200743A2025732025730D0A003E3E204D43E9
:1014A200552069733A2025733B20434C4B206973C6
:1014B2003A20256C75487A0D0A00307825780A00A2
:00000001FF
