S01A00006C6F6F706261636B5F696F6C6962726172792E7372656393
S113000071C000008EC000008CC000008AC00000D7
S113001088C0000086C0000084C0000082C00000C8
S113002080C000007EC000007CC000007BC00000D7
S113003078C0000076C0000074C0000072C00000E8
S113004070C000006EC000006CC000006AC00000F8
S113005068C0000066C0000064C0000062C0000008
S113006060C000005EC000005CC000005AC0000018
S113007058C0000056C0000054C0000052C0000028
S113008050C000004EC000004CC000004AC0000038
S113009048C0000046C0000044C0000042C0000048
S11300A040C000003EC000003CC000003AC0000058
S11300B038C0000036C0000034C0000032C0000068
S11300C030C000002EC000002CC000002AC0000078
S11300D028C0000026C0000024C0000022C0000088
S11300E020C0000011241FBECFEFD1E2DEBFCDBF80
S11300F000E00CBF13E0A0E0B2E0EAEAFDE000E0BB
S11301000BBF02C007900D92AA3DB107D9F723E0B7
S1130110AAEDB3E001C01D92A03EB207E1F7C9D237
S113012042C66ECF1F920F920FB60F9211240BB6D8
S11301300F922F933F934F935F936F937F938F937C
S11301409F93AF93BF93EF93FF9385E292E04ED3D7
S11301502F9AFF91EF91BF91AF919F918F917F91D2
S11301606F915F914F913F912F910F900BBE0F9024
S11301700FBE0F901F901895CF93DF93D82FC62FE3
S113018002D380E0F4D28D2FF2D28C2FF0D2F4D2AD
S1130190C82FFBD28C2FDF91CF910895AF92BF92DD
S11301A0CF92DF92FF920F931F93CF93DF9300D0F0
S11301B01F92CDB7DEB719828A836B834C83E3D257
S11301C08E010F5F1F4F5E0185E0A80EB11C0F2E3C
S11301D0F5E4CF2EF2E0DF2EF02DF801F1908F013F
S11301E08F2DC5D21F92FF92DF92CF92ECD20F9047
S11301F00F900F900F900A151B0579F7C6D20F9038
S11302000F900F900F90DF91CF911F910F91FF905E
S1130210DF90CF90BF90AF9008954F925F926F920E
S11302207F928F929F92AF92BF92CF92DF92EF9282
S1130230FF920F931F93CF93DF937A01122F2C0118
S113024066247724872E982EA92EBB2404E0060F5B
S11302509AD2842D8CD21F924F92C4E8D3E0DF93BC
S1130260CF93B1D2882D83D21F928F92DF93CF93F5
S1130270AAD2802F7CD2602F70E0645071097F93E2
S11302806F93DF93CF939FD2EDB7FEB73C960FB633
S1130290F894FEBF0FBEEDBF1123E1F0E70111504A
S11302A0C12ED12CFFEFCF1ADF0ACE0CDF1C04E8DD
S11302B013E07E0189915BD2F70180811F928F93B5
S11302C01F930F9380D20F900F900F900F90CC1527
S11302D0DD0579F788E793E09F938F9374D255D225
S11302E00F900F90DF91CF911F910F91FF90EF909E
S11302F0DF90CF90BF90AF909F908F907F906F9042
S11303005F904F900895AF92BF92CF92DF92FF9289
S11303100F931F93CF93DF9300D0CDB7DEB78983BC
S11303207A836B8330D28E010F5F1F4F5E0184E0AE
S1130330A80EB11C0F2EF4E8CF2EF3E0DF2EF02D23
S1130340F801F1908F018F2D12D21F92FF92DF924C
S1130350CF9239D20F900F900F900F900A151B0572
S113036079F70AD2182F88E793E09F938F932BD2C3
S11303700CD2812F0F900F900F900F900F90DF9160
S1130380CF911F910F91FF90DF90CF90BF90AF90CE
S11303900895EF92FF920F931F93CF93DF93CDB7FE
S11303A0DEB788E592E022D27E0180E1E80EF11CFE
S11303B00FE010E0F70141917F0164E0C801EEDE37
S11303C00F5F1F4F03311105A9F782E792E00ED2A8
S11303D0CE010A967C0109E010E0F70141917F010A
S11303E064E0C801DBDE0F5F1F4F0F301105A9F772
S11303F08CE892E0FBD17E01F8E1EF0EF11C00E005
S113040010E0F70141917F010F5F1F4F64E0C801C5
S1130410C5DE04301105A9F787EA92E0E7D17E0131
S1130420F4E1EF0EF11C05E010E0F70141917F01CA
S113043064E0C801B3DE0F5F1F4F09301105A9F74F
S1130440DF91CF911F910F91FF90EF900895EF925C
S1130450FF920F931F93CF93DF93CDB7DEB781EC59
S113046092E0C4D10FE010E00F2EFFEDEF2EF2E08A
S1130470FF2EF02D60E0C8017FDE1F928F93FF9264
S1130480EF92A1D10F5F1F4F0F900F900F900F901D
S11304900331110579F783EE92E0A8D109E010E069
S11304A00F2EFFEDEF2EF2E0FF2EF02D60E0C801DD
S11304B063DE1F928F93FF92EF9285D10F5F1F4FE0
S11304C00F900F900F900F900F30110579F781E086
S11304D093E08CD101E010E00F2EFFEDEF2EF2E05F
S11304E0FF2EF02D60E0C80147DE1F928F93FF922C
S11304F0EF9269D10F5F1F4F0F900F900F900F90E5
S11305000530110579F780E293E070D10F2EFFEDED
S1130510EF2EF2E0FF2EF02D60E0C8012DDE1F92D9
S11305208F93FF92EF924FD10F5F1F4F0F900F9059
S11305300F900F900930110579F7DF91CF911F913A
S11305400F91FF90EF9008958F929F92AF92BF9278
S1130550CF92DF92EF92FF920F931F93CF93DF938B
S113056000D0CDB7DEB7F82E162F072F8EE393E019
S11305703DD1CF2CD12C0F931F931F92FF9285E670
S113058093E09F938F931FD182E08983CC0CDD1C71
S1130590CC0CDD1C9FEFC91AD90ACC0CDD1CCC0C89
S11305A0DD1CCC0CDD1CDF92CF921F928F938BE766
S11305B093E09F938F9307D1B6010D2C000C880B09
S11305C0990B21E0AE014F5F5F4F27DE0A831B8347
S11305D08E010E5F1F4F7601ECEFFE1A4801F2E028
S11305E08F0E911C0FB6F894DEBF0FBECDBF0F2E39
S11305F0FAE8AF2EF3E0BF2EF02DFF92EF92F80150
S113060080811F928F93BF92AF92DDD0B7010F2CE0
S1130610000C880B990B21E0A801FFDD0F5F1F4F31
S1130620FFEFEF1AFF0A0F900F900F900F900F90AB
S11306300F900815190509F781E089838601139540
S11306401F930F931F928F938DE993E09F938F9342
S1130650BAD0B801110F880B990B21E0AE014F5F9E
S11306605F4FDBDDB6017D5F072E000C880B990B15
S11306704ADE93E09F9398E09F931F928F938EEAB4
S113068093E09F938F939FD00FB6F894DEBF0FBE75
S1130690CDBF0F900F900F90DF91CF911F910F91CD
S11306A0FF90EF90DF90CF90BF90AF909F908F908E
S11306B00895CF93DF93CDB7DEB767970FB6F8945D
S11306C0DEBF0FBECDBF80E092E09093DD03809348
S11306D0DC0383E390E05BD045D0789460E089E369
S11306E090E04ADD1F928F938EEB93E09F938F935C
S11306F06AD087E1EEE0F2E0DE01119601900D92FE
S11307008A95E1F78DB79EB747970FB6F8949EBFC9
S11307100FBE8DBFADB7BEB7119687E1FE0131960E
S113072001900D928A95E1F734DE8DB79EB7479715
S11307300FB6F8949EBF0FBE8DBFADB7BEB711966E
S113074087E1FE01319601900D928A95E1F77FDEF3
S11307500FB6F894DEBF0FBECDBF60EA7FE080E045
S1130760F3DEFFCF87E084B981E58CBD08958EBDAB
S11307700DB407FEFDCF08958FEF8EBD0DB407FEB7
S1130780FDCF8EB5089528980895289A08959093DA
S1130790C5008093C40088E18093C1000895E0EC13
S11307A0F0E0908195FFFDCF8093C6000895CF932C
S11307B0C82F8A3011F48DE0F2DF8C2FF0DF80E057
S11307C090E0CF910895CF93DF93CDB7DEB7AE011C
S11307D04A5F5F4FFA0161917191AF018091DC032F
S11307E09091DD0333D0DF91CF9108950F931F9340
S11307F0CF93DF93E091DC03F091DD03238121FFAC
S11308001BC08C01D0E0C0E0F80181918F016091A0
S1130810DC037091DD03DB011896ED91FC911997CF
S1130820882331F01995892B79F3DFEFCFEFECCFE3
S11308308AE01995892B19F08FEF9FEF02C08D2F55
S11308409C2FDF91CF911F910F9108952F923F928A
S11308504F925F926F927F928F929F92AF92BF92CC
S1130860CF92DF92EF92FF920F931F93CF93DF9378
S1130870CDB7DEB72B970FB6F894DEBF0FBECDBF52
S11308806C017B018A01FC0117821682838181FF3E
S1130890BFC1CE0101963C01F6019381F70193FD9E
S11308A0859193FF81917F01882309F4ADC185323D
S11308B039F493FD859193FF81917F01853221F471
S11308C0B60190E0D6D1E8CF912C212C312CFFE158
S11308D0F315D8F08B3279F038F4803279F0833222
S11308E0A1F4232D20611DC08D3261F0803369F4A1
S11308F0232D216016C0832D8260382EE32DE46001
S11309003E2E2AC0F32DF8601DC037FC2DC020ED0B
S1130910280F2A3040F08E32B9F436FC75C1232DED
S11309202064322E19C036FE06C08AE0989E200D3F
S11309301124922E11C0EAE02E9E200D1124222EA5
S1130940F32DF0623F2E08C08C3621F4832D80688D
S1130950382E02C0883641F4F70193FD859193FF48
S113096081917F018111B3CF982F9F7D955493304E
S113097028F40C5F1F4F9FE399830DC0833631F039
S1130980833771F0833509F055C020C0F8018081A8
S113099089830E5F1F4F88248394912C530112C0C6
S11309A02801F2E04F0E511CF801A080B18036FE00
S11309B003C0692D70E002C06FEF7FEFC5014ED117
S11309C04C018201F32DFF773F2E15C0280122E050
S11309D0420E511CF801A080B18036FE03C0692D7F
S11309E070E002C06FEF7FEFC5012DD14C01F32DF4
S11309F0F0683F2E820133FC19C0822D90E08816E6
S1130A009906A0F4B60180E290E033D12A94F5CFA0
S1130A10F50137FC859137FE81915F01B60190E0C5
S1130A2028D121102A9421E0821A9108811491047A
S1130A3079F7E1C0843611F0893639F5F80137FECB
S1130A4007C060817181828193810C5F1F4F08C050
S1130A5060817181072E000C880B990B0E5F1F4F6C
S1130A60F32DFF763F2E97FF09C0909580957095E2
S1130A7061957F4F8F4F9F4FF0683F2E2AE030E003
S1130A80A30133D1882E861844C0853731F4232D31
S1130A902F7EB22E2AE030E025C0932D997FB92E07
S1130AA08F36C1F018F4883579F0AEC0803719F06C
S1130AB0883721F0A9C0E92FE061BE2EB4FE0DC035
S1130AC0FB2DF460BF2E09C034FE0AC0292F266016
S1130AD0B22E06C028E030E005C020E130E002C0BC
S1130AE020E132E0F801B7FE07C0608171818281A4
S1130AF093810C5F1F4F06C06081718180E090E09C
S1130B000E5F1F4FA301F1D0882E8618FB2DFF77AF
S1130B103F2E36FE0DC0232D2E7FA22E891458F4AD
S1130B2034FE0BC032FC09C0832D8E7EA82E05C076
S1130B30B82CA32C03C0B82C01C0B92CA4FE0FC040
S1130B40FE01E80DF11D8081803321F49A2D997EF8
S1130B50A92E09C0A2FE06C0B394B39404C08A2D82
S1130B60867809F0B394A3FC10C0A0FE06C0B214AA
S1130B7080F4280C922C9B180DC0B21458F4B601C2
S1130B8080E290E076D0B394F8CFB21418F42B1826
S1130B9002C0982C212CA4FE0FC0B60180E390E083
S1130BA068D0A2FE16C0A1FC03C088E790E002C092
S1130BB088E590E0B6010CC08A2D867851F0A1FE3C
S1130BC002C08BE201C080E2A7FC8DE2B60190E096
S1130BD050D0891430F4B60180E390E04AD09A945E
S1130BE0F8CF8A94F301E80DF11D8081B60190E0FD
S1130BF040D08110F6CF222009F44ECEB60180E217
S1130C0090E037D02A94F7CFF6018681978102C00D
S1130C108FEF9FEF2B960FB6F894DEBF0FBECDBFBC
S1130C20DF91CF911F910F91FF90EF90DF90CF90C4
S1130C30BF90AF909F908F907F906F905F904F90F8
S1130C403F902F900895FC01059061507040011071
S1130C50D8F7809590958E0F9F1F0895FC016150E1
S1130C60704001900110D8F7809590958E0F9F1FCA
S1130C7008950F931F93CF93DF93FB01238121FDED
S1130C8003C08FEF9FEF2CC022FF16C0468157810F
S1130C90248135814217530744F4A081B1819D0119
S1130CA02F5F3F4F318320838C93268137812F5FC1
S1130CB03F4F3783268314C08B01EC01FB01008472
S1130CC0F185E02D1995892BE1F6D80116968D91C1
S1130CD09C911797019617969C938E931697CE0125
S1130CE0DF91CF911F910F910895FA01AA2728301F
S1130CF051F1203181F1E8946F936E7F6E5F7F4FE5
S1130D008F4F9F4FAF4FB1E03ED0B4E03CD0670F60
S1130D10781F891F9A1FA11D680F791F8A1F911DB3
S1130D20A11D6A0F711D811D911DA11D20D009F403
S1130D3068943F912AE0269F11243019305D319345
S1130D40DEF6CF010895462F4770405D4193B3E02E
S1130D500FD0C9F7F6CF462F4F70405D4A3318F0D5
S1130D60495D31FD4052419302D0A9F7EACFB4E086
S1130D70A6959795879577956795BA95C9F700973E
S1130D806105710508959B01AC010A2E06945795DF
S1130D90479537952795BA95C9F7620F731F841F36
S10D0DA0951FA01D0895F894FFCFDD
S1130DAA0000000200000000D70300000000000851
S1130DBADCABCDEFC0A80037FFFFFF00C0A80001DD
S1130DCA0808080801494E54455252555054494F8F
S1130DDA4E2041435449564520464F5220504349D8
S1130DEA4E54320D0053656E64696E6720627974DD
S1130DFA65202575200D0A000D0A2D2D2D2D2D2D6A
S1130E0A20495020414444523A202D2D2D2D2D2D78
S1130E1A0D000D0A2D2D2D2D2D2D204D4143204140
S1130E2A444452202D2D2D2D2D2D0D000D0A2D2D2E
S1130E3A2D2D2D2D20475720495020414444202D43
S1130E4A2D2D2D2D2D0D000D0A2D2D2D2D2D2D2061
S1130E5A4E4554204D41534B202D2D2D2D2D2D0D16
S1130E6A000D0A2D2D2D2D2D2D2047455420495096
S1130E7A20414444523A202D2D2D2D2D2D0D00258F
S1130E8A7520000D0A2D2D2D2D2D2D20474554207A
S1130E9A4D41432041444452202D2D2D2D2D2D0DFD
S1130EAA000D0A2D2D2D2D2D2D2047455420475751
S1130EBA20495020414444202D2D2D2D2D2D0D0047
S1130ECA0D0A2D2D2D2D2D2D20474554204E4554E8
S1130EDA204D41534B202D2D2D2D2D2D0D000D0A66
S1130EEA2D2D2D2D2D2D2D20494E495449414C4946
S1130EFA5A494E4720554450202D2D2D2D2D2D2D48
S1130F0A2D2D2D0D00536F636B65742023256420EA
S1130F1A506F7274202325750A0D00536E4D523A90
S1130F2A20257840307825782000536E504F52544B
S1130F3A3A203078257840307825782000536E435B
S1130F4A523A203078257840307825782000536E3C
S1130F5A5F53523A2025784030782578200044415E
S1130F6A544120524541442046524F4D205735356D
S10D0F7A30303A2025750D0A0000FE
S9030000FC
